:1000B7003F065B4F666D7D077F6F777C395E797191
:0100C7000038
:0B00D400EF1FAC0670011E4C70F622FE
:0800DF008F993099FDC29922AE
:10000300E4F50A75900FE590640F70030200907F8A
:10001300E87E031200D4E590640F606A75900FAF19
:1000230090EF24F5601024FE601114601324077010
:1000330012E4F508800D7508018008750802800335
:100043007508037590F0AF90EF2450601124E060C1
:100053001124F0601124707013850808800E740455
:10006300800674088002740C2508F508C3E50A6449
:100073008094B25011E59064F0600B7FE87E031228
:0D00830000D4050A80E6AF087E001200DF01
:01009000224D
:10009100C2A2C2A3C2A4758920758DFD758BFDD244
:1000A1008EC29FD29ED2AFD2AC120003E50890005F
:0600B100B793F58080F317
:030000000200C833
:0C00C800787FE4F6D8FD75810A020091F3
:00000001FF
